:020000040000FA
:08000000803102288731F62F40
:10004E0021009D140800F10071088031592008002C
:10005E002000100E890C0139080021001C08F10047
:10006E001B08F000080071082100DA007008D900A2
:10007E00080071082100DE007008DD00080071081C
:10008E002100DC007008DB000800640080010131F3
:10009E00890B4D2800346A30210099009801220006
:1000AE0096010800F0002000101E5A287008230048
:1000BE009A000800C03021009E009F019B019C0108
:1000CE0001309D000800F8000330F0008830F10088
:1000DE00780881315721080080302C0099004D306E
:1000EE009800C0309700CF3025009E0508002000F4
:1000FE009E019D019F019B309B009A019010F03054
:10010E009C0008002000901E89282100B4012300C5
:10011E009D1C93281D121D1619080800F100710868
:10012E00F000F00DF00D21001D08700683397006E9
:10013E009D001D14080068302000EA006A08ED00DA
:10014E006708DF006608DE006D30EA006A08E0002E
:10015E0000308131BB2108008131EA2180318031AC
:10016E005220803180317320803180317E20803169
:10017E008031612080318131752108007108F300D2
:10018E007008F200F336F20CF336F20C72082C0003
:10019E00980070080339F2000530F235FF3E031D5A
:1001AE00D4287235970008007008D03EF200FF3058
:1001BE00713DF300003073020A3003197202031806
:1001CE00EA280130EB280030F400F5017408F00045
:1001DE007508F10008007408803AF5008030750249
:1001EE00031DFB2801307302031808007309F50084
:1001FE007409F600F50A0319F60A7508F300760875
:10020E00F4000800F4007408F2007208F300740899
:10021E00860087010108031919290130F2007208BE
:10022E00F4070E2973087402F000F101F01BF103BC
:10023E000800F401F501701C28297208F4077308F0
:10024E00F53D0130F235F30D890B29290130F136D8
:10025E00F00C890B2E2970087104031D22297508D4
:10026E00F1007408F0000800F401F40A2030700662
:10027E00710403194F297008F73EF200FF30713DEB
:10028E00F300003073020530031972020318F401F3
:10029E007408F200F3017208F0007308F100080010
:1002AE00F7007108F5007008F4007708F200720884
:1002BE00F600760886008701F60A7508F3007408C2
:1002CE00F200F40A0319F50A720884007308850017
:1002DE000008C03F89080319080060290830230070
:1002EE009F0090309D0024309E0067309B009C0143
:1002FE000030F0000030F1008031402081310030BC
:10030E00F0000030F1008031462081310030F000E5
:10031E000030F10080313A202100B40108002000A5
:10032E00A300A101A20121082307FB007B08860080
:10033E0087010108FC007C08A000200803190800B2
:10034E002008FB00FC017B08F2007C08F3007A0811
:10035E00FD007D08F40082311D2281310130200024
:10036E00A1070030A23D9A292000E3005F08E500B6
:10037E005E08E4002100A401A501200064088400A9
:10038E006508850012000319E1296430E100610857
:10039E00CE006008E2006208CF00630884310824B2
:1003AE00813120004E082100A40720004F082100B3
:1003BE00A53DC429210025082000DF0021002408C6
:1003CE002000DE000800203022008C008D018E01FE
:1003DE00373021008C008D01FF308E004F3023000E
:1003EE008E0060308D0017308C0024008D018C0142
:1003FE008E012100951725008C018D018E0137305D
:10040E0026008C00F0308D00FF308E003F3027002C
:10041E008C00F0308D00FF308E0017303C00A400B1
:10042E0012303D009F000E309C0008007408031D22
:10043E007408031D262A720880312A2008007408C9
:10044E00033E86008701160001040319492A740829
:10045E00033E86008701403FF500413FF600740AD7
:10046E0086008701403FF700413FF8007808803A48
:10047E00F9007608803A7902031D472A750877023B
:10048E0003180800740A8600870101308107413184
:10049E000318810A08002000AC0021002A1C602AE3
:1004AE0020002C08A7002708FA0024088131962185
:1004BE0082312000A61B682A2608AB002508AA0058
:1004CE006A2AAA01AB01A801A9012908803AA7004E
:1004DE002B08803A2702031D762A2A0828020318C1
:1004EE008A2A2030F2000030F30020002C08A700EA
:1004FE002708F40082311D22823101302000A80726
:10050E000030A93D6C2A21002A18962A20002C08BA
:10051E00A7002708FA002408813196218231200095
:10052E0024088131092120002A087007A4002B0815
:10053E00713DA50008002000A900A601A701A40195
:10054E00A5010030A3000030A2000030A100003051
:10055E00A000CD2A2030F0000030F10029088131B2
:10056E0057218231203080316A2008002808F90096
:10057E002408203E86008701790881000130A407F7
:10058E000030A53D0130A6070030A73D200027080A
:10059E00803AF90080307902031DD72A04302602F2
:1005AE000318F72A80312F208231003A0319CD2A01
:1005BE00803189208231F90079082000A8002808AE
:1005CE00F900FA017A08003A0319EE2ABD2A7908D1
:1005DE000A3A0319B12A313A0319B12ABD2ACD2A92
:1005EE002030F0000030F100200029088131572121
:1005FE008231203080316A2008008031B32083316F
:10060E0022008D160D13D5308231A2228331063091
:10061E002000EF001330EE00AD30890B142BEE0BE3
:10062E00142BEF0B142B0032D53083316D23833115
:10063E0077082100AF007608AE002F08F1002E08D3
:10064E00F0008031C52083312100DF01E001600818
:10065E00803A2000EE0080306E02031D392B1530DB
:10066E0021005F0203180A2B05308031952083315B
:10067E00803127208331803134208331710821006D
:10068E00AD007008AC0000302000E6008830E700B6
:10069E0021002D082000E90021002C082000E80090
:1006AE008031A220833102302000EF000430EE00B2
:1006BE00BA30890B602BEE0B602BEF0B602B00001A
:1006CE0001302100DF070030E03D2E2B2000A90075
:1006DE00A701A801A001A101A601A60A290886006A
:1006EE0087012030010603198D2B2908860087010A
:1006FE000108F73EF800FF3003180030F900003013
:10070E0079020530031978020318A6012608F800AD
:10071E00F9017808A2007908A3002208230403191E
:10072E00A22B0130F8007808A907732B0130A00026
:10073E000030A100D12B2908860087010108F8009E
:10074E00F9017908003A0319AD2BD52B78082B3A0D
:10075E000319D12B063A03199D2BD52B2908860098
:10076E0087012808F1002708F0000A30F200003057
:10077E00F3008131202183317108F90001087002E4
:10078E00F800031CF9037808303E2000A700003063
:10079E00793DA8000130F8007808A90729088600DD
:1007AE0087010108D03EF800FF3003180030F90031
:1007BE00003079020A30031978020318E82B013051
:1007CE00E92B0030FA00FB017A08A4007B08A50093
:1007DE0024082504031DB52B20082104031D032C1A
:1007EE002709F8002809F900F80A0319F90A780808
:1007FE00F6007908F70008002808F7002708F60029
:10080E0008002000DD004E0886008701403FD00022
:10081E00413FD10050088400510885001200253A4E
:10082E00031DB52C4E08860087010130810741312A
:10083E000318810A2100A601A701AA01AB01FF300E
:10084E00A800FF30A90020004E0886008701403F17
:10085E00D000413FD100500884005108850012009D
:10086E00643A0319492C4E0886008701403FD00098
:10087E00413FD10050088400510885001200693AAA
:10088E00031D832C4E0886008701013081074131FC
:10089E000318810A4F08860087010108840085012C
:1008AE0002308107003FD000013FD1005008D50033
:1008BE005108D600890D893B8909D700D800D90087
:1008CE00DA00DB00DC005508B0005608B10057080E
:1008DE00B2005808B3005908B4005A08B5005B08B6
:1008EE00B6005C08B7005D088631A72620003108E7
:1008FE00CF003008CE0008004E0886008701403F2A
:10090E00D000413FD10050088400510885001200EC
:10091E00253A031DAA2C4E08860087010130810757
:10092E0041310318810A2530F2000030F3005D08D2
:10093E00D0005008F40082311D2201302000CE007C
:10094E000030CF0008004E08860087010130810775
:10095E0041310318810ACE01CF0108004E088600EE
:10096E008701403FD000413FD1005008840051081C
:10097E0085000008D200D3015208F2005308F3009C
:10098E005D08D4005408F40082311D228431200009
:10099E004E08860087010130810741310318810A14
:1009AE00A42CF2012830860000308700473FF0006B
:1009BE00F01F022D2000A809A909AA09AB09AC094C
:1009CE00AD09AE09AF09A80A031D002DA90A031D22
:1009DE00002DAA0A031D002DAB0A031D002DAC0A23
:1009EE00031D002DAD0A031D002DAE0A031D002DA3
:1009FE00AF0AF201F20A2030860000308700473F2E
:100A0E00F000F01F292D2000A009A109A209A309B9
:100A1E00A409A509A609A709A00A031D292DA10A43
:100A2E00031D292DA20A031D292DA30A031D292DFD
:100A3E00A40A031D292DA50A031D292DA60A031D8F
:100A4E00292DA70A200020082104220423042404AF
:100A5E002504260427040319812DF101F10AA71B91
:100A6E00452DA035A10DA20DA30DA40DA50DA60D0E
:100A7E00A70D0130F0007008F107362D27082F0260
:100A8E00031D632D26082E02031D632D25082D023E
:100A9E00031D632D24082C02031D632D23082B0236
:100AAE00031D632D22082A02031D632D210829022E
:100ABE00031D632D20082802031C752D2008A80293
:100ACE002108A93B2208AA3B2308AB3B2408AC3BD8
:100ADE002508AD3B2608AE3B2708AF3BA736A60C34
:100AEE00A50CA40CA30CA20CA10CA00C0130F102BD
:100AFE00031D452D72080319A22DA809A909AA09DB
:100B0E00AB09AC09AD09AE09AF09A80A031DA22DA8
:100B1E00A90A031DA22DAA0A031DA22DAB0A031DAD
:100B2E00A22DAC0A031DA22DAD0A031DA22DAE0AE5
:100B3E00031DA22DAF0A20002808A0002908A1003D
:100B4E002A08A2002B08A3002C08A4002D08A5003B
:100B5E002E08A6002F08A7000800F20120308600FC
:100B6E0000308700473FF000F01FDE2D2000A00967
:100B7E00A109A209A309A409A509A609A709A00A02
:100B8E00031DDC2DA10A031DDC2DA20A031DDC2D85
:100B9E00A30A031DDC2DA40A031DDC2DA50A031DCB
:100BAE00DC2DA60A031DDC2DA70AF201F20A28305D
:100BBE00860000308700473FF000F01F092E20000E
:100BCE00A809A909AA09AB09AC09AD09AE09AF0973
:100BDE00A80A031D052EA90A031D052EAA0A031D28
:100BEE00052EAB0A031D052EAC0A031D052EAD0AFC
:100BFE00031D052EAE0A031D052EAF0A0130F000AF
:100C0E007008F20673308600003087000830F0005E
:100C1E0000301E00F00B102E2000200821042204AC
:100C2E00230424042504260427040319742EF10139
:100C3E00F10AA71B2F2EA035A10DA20DA30DA40DF9
:100C4E00A50DA60DA70D0130F0007008F107202E9E
:100C5E00F335F40DF50DF60DF70DF80DF90DFA0D42
:100C6E0027082F02031D552E26082E02031D552E72
:100C7E0025082D02031D552E24082C02031D552E6A
:100C8E0023082B02031D552E22082A02031D552E62
:100C9E0021082902031D552E20082802031C682E48
:100CAE002008A8022108A93B2208AA3B2308AB3B37
:100CBE002408AC3B2508AD3B2608AE3B2708AF3BCE
:100CCE007314A736A60CA50CA40CA30CA20CA10C95
:100CDE00A00C0130F102031D2F2E72080319952E60
:100CEE00F309F409F509F609F709F809F909FA09FA
:100CFE00F30A031D952EF40A031D952EF50A031D06
:100D0E00952EF60A031D952EF70A031D952EF80A49
:100D1E00031D952EF90A031D952EFA0A730820005D
:100D2E00A0007408A1007508A2007608A300770839
:100D3E00A4007808A5007908A6007A08A700080084
:100D4E002000BF003008C4003108C5003208C600BC
:100D5E003308C7003408C8003508C9003608CA0071
:100D6E003708CB004430860000308700473FB8007C
:100D7E00B81FC32E0130C42E00302000B900BA01B6
:100D8E003908C2003A08C300420843040319ED2E85
:100D9E00C409C509C609C709C809C909CA09CB09C1
:100DAE00C40A031DED2EC50A031DED2EC60A031D32
:100DBE00ED2EC70A031DED2EC80A031DED2EC90A1E
:100DCE00031DED2ECA0A031DED2ECB0A2100A91B11
:100DDE00F42EFD30AA05FF30AB052908803A20001D
:100DEE00B80080303802031DFF2E0130210028028A
:100DFE000318072F01302000BD000030BE000F2F5A
:100E0E00210029082000BE00210028082000BD0076
:100E1E00210027082000C100210026082000C00064
:100E2E0042084304031D1E2F21002A1D232FFF30CD
:100E3E002000C007FF30C13D1F302000CC00003025
:100E4E00CD002100D401B82F2000440845044604EB
:100E5E004704480449044A044B04031D502F3E081E
:100E6E00803AB80080303802031D3F2F01303D021A
:100E7E000318502F20004108803AB8008030380205
:100E8E00031D4B2F01304002031CC42F2100AA1C4E
:100E9E00C42FFF302000CC07FF30CD3D0A30A0001C
:100EAE00A101A201A301A401A501A601A701440865
:100EBE00A8004508A9004608AA004708AB00480844
:100ECE00AC004908AD004A08AE004B08AF008431B3
:100EDE00D824863120002108F4002008F300803148
:100EEE00F22086317308303E2000B8004C08B53E23
:100EFE008600870138088100FF30BD07FF30BE3DF8
:100F0E00FF30C007FF30C13D0A30A000A101A20191
:100F1E00A301A401A501A601A7014408A800450844
:100F2E00A9004608AA004708AB004808AC004908CB
:100F3E00AD004A08AE004B08AF008531B4258631AE
:100F4E0020002008C4002108C5002208C60023087E
:100F5E00C7002408C8002508C9002608CA002708AB
:100F6E00CB0020004D08803AB80080303802031DB7
:100F7E00C22F01304C0203182B2F200042084304CD
:100F8E00031DCC2F21002A1DE32FFF302000CC079C
:100F9E00FF30CD3D42084304031DD72F2B30D82FF1
:100FAE002D30BB000030BC003B08B8004C08B53EED
:100FBE00860087013808810020004C08B53EB80035
:100FCE003808A4004108A6004008A5003F08823159
:100FDE00522220002508B1002408B0000800A030DD
:100FEE00840000308500393080314C202000833160
:0A0FFE00042B253469340A34003452
:020000040001F9
:06000E00FC3FFF3E9F3F96
:00000001FF
